:100000000C9435000C945D000C945D000C945D0024
:100010000C945D000C945D000C945D000C945D00EC
:100020000C945D000C945D000C945D000C945D00DC
:100030000C945D000C945D000C945D000C945D00CC
:100040000C94CA010C945D000C943A020C941402B6
:100050000C945D000C945D000C945D000C945D00AC
:100060000C945D000C945D00900311241FBECFEF33
:10007000D8E0DEBFCDBF11E0A0E0B1E0EEEAF8E0ED
:1000800002C005900D92A831B107D9F721E0A8E18F
:10009000B1E001C01D92A83CB207E1F710E0C5E352
:1000A000D0E004C02197FE010E944A04C433D10766
:1000B000C9F70E946C020C9455040C940000CF9276
:1000C000DF92EF92FF920F931F93CF93DF936C0118
:1000D0007A018B01C0E0D0E0CE15DF0581F0D801B8
:1000E0006D918D01D601ED91FC910190F081E02D93
:1000F000C6010995892B11F02196EECF7E01C7012B
:10010000DF91CF911F910F91FF90EF90DF90CF90F3
:100110000895089580E090E00895FC01538D448D8A
:10012000252F30E0842F90E0821B930B541710F0A2
:10013000CF96089501970895FC01918D828D9817AF
:1001400061F0828DDF01A80FB11D5D968C91928DBB
:100150009F5F9F73928F90E008958FEF9FEF0895B8
:10016000FC01918D828D981731F0828DE80FF11D81
:10017000858D90E008958FEF9FEF0895FC01918D9C
:10018000228D892F90E0805C9F4F821B91098F7395
:10019000992708958BE291E00E94BE0021E0892B0F
:1001A00009F420E0822F0895FC01848DDF01A80F5F
:1001B000B11DA35ABF4F2C91848D90E001968F738F
:1001C0009927848FA689B7892C93A089B1898C91AE
:1001D000837080648C93938D848D981306C00288FD
:1001E000F389E02D80818F7D80830895EF92FF92C7
:1001F0000F931F93CF93DF93EC0181E0888F9B8D4A
:100200008C8D981305C0E889F989808185FD26C009
:10021000F62E0B8D10E00F5F1F4F0F731127E02E8E
:100220008C8DE8120CC00FB607FCFACFE889F9896B
:10023000808185FFF5CFCE010E94D400F1CF8B8D58
:10024000FE01E80FF11DE35AFF4FF0829FB7F894CB
:100250000B8FEA89FB89808180620AC09FB7F8947E
:10026000EE89FF896083E889F989808183708064E1
:1002700080839FBF81E090E0DF91CF911F910F912C
:10028000FF90EF900895CF93DF93EC01888D882342
:10029000C9F0EA89FB89808185FD05C0A889B989F3
:1002A0008C9186FD0FC00FB607FCF5CF808185FFCE
:1002B000F2CFA889B9898C9185FFEDCFCE010E943C
:1002C000D400E7CFDF91CF91089580E090E0892BB3
:1002D00029F00E94CA0081110C94000008958F92A9
:1002E0009F92AF92BF920F931F93CF93DF93CDB79F
:1002F000DEB7A1970FB6F894DEBF0FBECDBF19A22F
:10030000423008F44AE08E010F5D1F4F842E912C7D
:10031000A12CB12CA50194010E942804E62FB9015B
:10032000CA0101501109EA3014F4E05D01C0E95C32
:10033000D801EC93232B242B252B61F701151105F4
:1003400071F0F80101900020E9F73197AF01401BEF
:10035000510BB8018BE291E00E945F0002C080E087
:1003600090E0A1960FB6F894DEBF0FBECDBFDF912F
:10037000CF911F910F91BF90AF909F908F90089554
:1003800041E050E066E171E08BE291E00C945F00A7
:100390000E9450041F920F920FB60F9211242F93B8
:1003A0003F938F939F93AF93BF9380912701909139
:1003B0002801A0912901B0912A013091260123E062
:1003C000230F2D3720F40196A11DB11D05C026E88D
:1003D000230F0296A11DB11D2093260180932701B2
:1003E00090932801A0932901B0932A0180912201C2
:1003F00090912301A0912401B09125010196A11DA6
:10040000B11D8093220190932301A0932401B09306
:100410002501BF91AF919F918F913F912F910F90A7
:100420000FBE0F901F9018951F920F920FB60F924C
:1004300011242F933F934F935F936F937F938F93E9
:100440009F93AF93BF93EF93FF938BE291E00E9452
:10045000D400FF91EF91BF91AF919F918F917F91C8
:100460006F915F914F913F912F910F900FBE0F9021
:100470001F9018951F920F920FB60F9211242F9371
:100480008F939F93EF93FF93E0913B01F0913C0199
:100490008081E0914101F091420182FD12C0908182
:1004A000809144018F5F8F7320914501821751F035
:1004B000E0914401F0E0E55DFE4F958F80934401AB
:1004C00001C08081FF91EF919F918F912F910F90AB
:1004D0000FBE0F901F901895789484B5826084BDEC
:1004E00084B5816084BD85B5826085BD85B5816038
:1004F00085BD80916E00816080936E0010928100B6
:100500008091810082608093810080918100816070
:100510008093810080918000816080938000809131
:10052000B10084608093B1008091B00081608093BD
:10053000B00080917A00846080937A0080917A0084
:10054000826080937A0080917A00816080937A0043
:1005500080917A00806880937A001092C100E091C7
:100560003B01F0913C0182E08083E0913701F09102
:1005700038011082E0913901F0913A018FEC8083CB
:1005800010924301E0913F01F091400186E08083A9
:10059000E0913D01F0913E01808180618083E09196
:1005A0003D01F0913E01808188608083E0913D01B2
:1005B000F0913E01808180688083E0913D01F0915F
:1005C0003E0180818F7D808310E4C1E0D0E02FB7B1
:1005D000F8948091270190912801A0912901B09170
:1005E0002A012FBF80931E0190931F01A093200129
:1005F000B093210110937C0080917A0080648093F5
:100600007A0080917A0086FDFCCF6091780080911D
:10061000790070E0782B072E000C880B990B0E9454
:10062000C4036B017C0160931A0170931B018093DA
:100630001C0190931D018090000190900101A090F9
:100640000201B0900301A50194010E942304181631
:100650002CF4D0931901C09318011FC0A501940177
:10066000C701B6010E94BD0387FF05C010921901A2
:100670001092180112C020E030E04EE554ECC501A4
:10068000B4010E94BD03811108C0C0920001D09244
:100690000101E0920201F092030160911E0170914C
:1006A0001F0180912001909121014AE00E946F0179
:1006B0000E94C001C0901801D09019010D2C000CAF
:1006C000EE08FF08F7FE0EC06DE28BE291E00E949B
:1006D000F60066277727CB016C197D098E099F09E3
:1006E0004AE003C04AE0C701B6010E946F010E94C0
:1006F000C00180911A0190911B01A0911C01B09141
:100700001D018093000190930101A0930201B09319
:10071000030110921901109218010E94650157CF30
:10072000EBE2F1E01382128288EE93E0A0E0B0E009
:1007300084839583A683B78388E091E09183808347
:1007400085EC90E09587848784EC90E09787868796
:1007500080EC90E0918B808B81EC90E0938B828B8E
:1007600082EC90E0958B848B86EC90E0978B868B67
:10077000118E128E138E148E08950E94FF0308F4BA
:1007800081E00895E89409C097FB3EF49095809528
:10079000709561957F4F8F4F9F4F9923A9F0F92F47
:1007A00096E9BB279395F695879577956795B795C5
:1007B000F111F8CFFAF4BB0F11F460FF1BC06F5FAB
:1007C0007F4F8F4F9F4F16C0882311F096E911C0BD
:1007D000772321F09EE8872F762F05C0662371F0DE
:1007E00096E8862F70E060E02AF09A95660F771FF2
:1007F000881FDAF7880F9695879597F90895990FCE
:100800000008550FAA0BE0E8FEEF16161706E807DA
:10081000F907C0F012161306E407F50798F0621BFB
:10082000730B840B950B39F40A2661F0232B242BD0
:10083000252B21F408950A2609F4A140A6958FEFEF
:10084000811D811D08950E94FF0308F48FEF089514
:10085000A1E21A2EAA1BBB1BFD010DC0AA1FBB1FC4
:10086000EE1FFF1FA217B307E407F50720F0A21B36
:10087000B30BE40BF50B661F771F881F991F1A94A3
:1008800069F760957095809590959B01AC01BD01CD
:10089000CF010895EE0FFF1F0590F491E02D09940C
:0E08A00081E090E0F8940C945504F894FFCF9A
:1008AE0000005EC400000000F6005F008D004301F2
:0808BE00BE009C00B0003B00ED
:107E0000112484B714BE81FFF0D085E080938100F7
:107E100082E08093C00088E18093C10086E0809377
:107E2000C20080E18093C4008EE0C9D0259A86E02C
:107E300020E33CEF91E0309385002093840096BBD3
:107E4000B09BFECF1D9AA8958150A9F7CC24DD24C4
:107E500088248394B5E0AB2EA1E19A2EF3E0BF2EE7
:107E6000A2D0813461F49FD0082FAFD0023811F036
:107E7000013811F484E001C083E08DD089C08234E0
:107E800011F484E103C0853419F485E0A6D080C0E4
:107E9000853579F488D0E82EFF2485D0082F10E0AE
:107EA000102F00270E291F29000F111F8ED06801E7
:107EB0006FC0863521F484E090D080E0DECF843638
:107EC00009F040C070D06FD0082F6DD080E0C81688
:107ED00080E7D80618F4F601B7BEE895C0E0D1E017
:107EE00062D089930C17E1F7F0E0CF16F0E7DF06D8
:107EF00018F0F601B7BEE89568D007B600FCFDCFD4
:107F0000A601A0E0B1E02C9130E011968C91119780
:107F100090E0982F8827822B932B1296FA010C0160
:107F200087BEE89511244E5F5F4FF1E0A038BF0790
:107F300051F7F601A7BEE89507B600FCFDCF97BE46
:107F4000E89526C08437B1F42ED02DD0F82E2BD052
:107F50003CD0F601EF2C8F010F5F1F4F84911BD097
:107F6000EA94F801C1F70894C11CD11CFA94CF0C13
:107F7000D11C0EC0853739F428D08EE10CD085E9AC
:107F80000AD08FE07ACF813511F488E018D01DD067
:107F900080E101D065CF982F8091C00085FFFCCF94
:107FA0009093C60008958091C00087FFFCCF809118
:107FB000C00084FD01C0A8958091C6000895E0E648
:107FC000F0E098E1908380830895EDDF803219F02E
:107FD00088E0F5DFFFCF84E1DECF1F93182FE3DFCA
:107FE0001150E9F7F2DF1F91089580E0E8DFEE27F6
:047FF000FF270994CA
:027FFE00040479
:0400000300007E007B
:00000001FF
